:020000040800F2
:10000000E04C0220850200089BFA0108EDE6010899
:1000100099FA01084D9601088906020800000000BF
:10002000000000000000000000000000C501000802
:10003000299901080000000021020008A1FD010823
:100040009F0200089F0200089F0200089F0200080C
:100050009F0200089F0200089F0200089F020008FC
:100060009F0200089F0200089F0200089F020008EC
:100070009F0200089F0200089F0200089F020008DC
:100080009F0200089F0200089F0200089F020008CC
:100090009F0200089F0200089F0200089F020008BC
:1000A0009F0200089F0200089F0200089F020008AC
:1000B0009F0200089F0200089F0200089F0200089C
:1000C0009F0200089F0200089F0200089F0200088C
:1000D0009F0200089F0200089F0200089F0200087C
:1000E0009F0200089F0200089F0200089F0200086C
:1000F0009F0200089F0200089F0200089F0200085C
:100100009F0200089F0200089F0200089F0200084B
:100110009F0200089F020008D1FE01089F0200080C
:100120009F0200089F0200089F0200089F0200082B
:100130009F0200089F0200089F0200089F0200081B
:100140009F0200089F0200089F0200089F0200080B
:100150009F0200089F0200089F0200089F020008FB
:100160009F0200089F0200089F0200089F020008EB
:100170009F0200089F0200089F0200080000000084
:100180009F0200089F0200089F0200089F020008CB
:100190009F0200089F0200089F0200089F020008BB
:1001A00091F201089F0200086D980108DFF810D055
:1001B00000F01AF9004800479B0D0208AFF30080D9
:1001C000E04C02202C4B19680868B0E8F04F80F32F
:1001D0000988BFF36F8F4FF0000080F311887047DC
:1001E0000000000008480068006880F308884FF0AD
:1001F000000080F3148862B661B6BFF34F8FBFF37F
:100200006F8F00DF00BF00BF08ED00E0DFF80C00DB
:10021000016841F470010160704700BF88ED00E0A3
:10022000EFF30980BFF36F8F134B1A681EF0100FA6
:1002300008BF20ED108A20E9F04F106009B44FF09C
:10024000500080F31188BFF34F8FBFF36F8F21F001
:1002500003FD4FF0000080F3118809BC196808689D
:10026000B0E8F04F1EF0100F08BFB0EC108A80F31A
:100270000988BFF36F8F7047CC000020EFF3058033
:10028000704700000648804706480047FEE7FEE743
:10029000FEE7FEE7FEE7FEE7FEE7FEE7FEE7FEE736
:1002A0007DFE0108AD0100082DE9F05F0546002044
:1002B00092469B4688460646814640241BE02846D7
:1002C00041464746224600F07FF853465A46C01A38
:1002D000914110D311461846224600F066F82D1AB7
:1002E00067EB01084F4622460120002100F05DF82F
:1002F00017EB00094E41201EA4F10104DFDC484643
:1003000031462A464346BDE8F09F10B5441A0346DD
:10031000944209D28418114403E011F8013D04F815
:10032000013D521EF9D210BD40EA0104A40703D0DA
:1003300009E010C9121F10C3042AFAD203E011F811
:10034000014B03F8014B521EF9D210BDD2B201E0AD
:1003500000F8012B491EFBD270470022F6E710B5CA
:1003600013460A4604461946FFF7F0FF204610BD23
:10037000421C10F8011B0029FBD1801A704730B5D0
:1003800004460020034600E05B1C934203D2E05C7D
:10039000CD5C401BF8D030BD034611F8012B00F8AE
:1003A000012B002AF9D118467047202A04DB203A95
:1003B00000FA02F1002070479140C2F1200320FAB8
:1003C00003F3194390407047202A04DB203A21FAB6
:1003D00002F00021704721FA02F3D040C2F120025E
:1003E0009140084319467047064C074D06E0E06807
:1003F00040F0010394E8070098471034AC42F6D36C
:10040000FFF7D8FEC8B90308E8B9030870B58C181F
:1004100010F8015B15F0070301D110F8013B2A1118
:1004200006D110F8012B03E010F8016B01F8016B05
:100430005B1EF9D12B0705D40023521E0DD401F801
:10044000013BFAE710F8013BCB1A921C03E013F8CA
:10045000015B01F8015B521EF9D5A142D8D30020FF
:1004600070BD000070B5456882B00446014628465C
:100470000AF0FEFB68B123680F2B59D00BDD282B47
:1004800045D0B3F5107F3CD0112B49D020460AF05F
:1004900041FF02B070BD0B2B20D00E2BF6D1E368CC
:1004A0001A6859680D2A53D0202A31D100292846CC
:1004B0004FF480717DDD0AF0C7FC284601F060FD35
:1004C00002AB846A43F8040D184601F0A9FEA207A6
:1004D000DFD5284601210CF0A7FDDAE7284601F018
:1004E0004FFD02AD03466830019301F02BFB55F838
:1004F000040D03216C3001F04BFB284601F090FE07
:10050000C4E7324B214628461B689847C1E7E36899
:10051000002BBBD128464FF480710AF08DFBB5E764
:100520002B4B1B68002BB4D0214628469847B0E7D8
:10053000284601F025FD02AB43F8040D426E146815
:10054000184601F06DFE002CA3D02846A047A0E776
:100550000029DDDD4FF4807128460AF075FC28463D
:1005600001F00EFD02AC866A44F8040D204601F04D
:1005700057FEB10703D5012128460CF055FD4FF475
:10058000807128460AF058FB284601F0F9FC034622
:1005900020461E8E9C6A019301F042FE304605F013
:1005A00077FDA3077FF575AF284602210CF03CFDCF
:1005B0006FE70AF041FB284601F0E2FC02AB846AD7
:1005C00043F8040D068E1846E6E700BF60010020E0
:1005D000504502202DE9F04FB0F90A60B0F90C70D7
:1005E0008569B0F90E80B0F91090B0F908A087B015
:1005F0008B4616441F4404464C3503F061F9DFF87E
:10060000CCC0CDF800B04FF0000E4246394630461F
:1006100003954B46CDF808C0CDF804E00AF07CFD08
:10062000804628B906F06EF8404607B0BDE8F08F66
:1006300001F0A6FC244F0590514610223E1D0AF001
:1006400069FC0DF118090FCE59F804ED0EF13405CF
:100650000FC50FCE0FC596E80F0085E80F007B6B26
:10066000CEF86430484601F0DBFD7B6B40465B68AA
:10067000984706F047F8656803F022F9404601F014
:100680007FFC846E049004A8059401F0C9FD2946FE
:10069000484607F0ADFB0028C4D0059B9C4209D01A
:1006A000404601F06DFC059A8266034604A8049357
:1006B00001F0B6FD40460CF081F806F023F8404604
:1006C00007B0BDE8F08F00BF60010020650400089E
:1006D000F0B5954A8168436852F8216089B00446B4
:1006E000122B3FD8DFE803F0AE3E3E3E3E0A963E78
:1006F0003E3E3E3E3E3E3E3E3E3E4100F569002DC2
:1007000040F0B280371F57F8040F05F03DFC04F1AC
:1007100010000FC85B1B521B29442844013502F00E
:10072000F3FD022DEFD132696169E3690192A2699B
:100730002069F76800970B445B100231521B284474
:1007400002F0B8FCE3696169B2690192A2692069AB
:1007500074690094194449100131023B521B28442A
:1007600002F0A8FC002009B0F0BD006801F008FC10
:10077000856E0490002D00F0CF80A368B0F95C7006
:10078000002B00F0C780032B14BF0023022300EBD3
:100790008303406D1C6C05F00FFC204605F0F4FB54
:1007A00008AC06A802F058FFB6F81CE0BDF8181017
:1007B000BDF81C20BDF81A0054F8106DBDF81E30AD
:1007C0007144CEEB02020230023BADF81810ADF8D6
:1007D0001C20B6F95E10B6F96020ADF81A0006A824
:1007E000ADF81E3004F060FE204601F019FD022035
:1007F00005F036FC284601F0C3FB08AC06A944F816
:100800000C0D3A4602F002FA204601F009FD0020E4
:1008100009B0F0BD006801F0B3FB049020680DF052
:100820007BFFA8B9049B5D6F05B9DD6E04A801F0DC
:10083000F7FC0023284621681A4602F0E3F800205E
:1008400009B0F0BD00680CF02BFF002009B0F0BD2E
:10085000A368002B64D1049A136F002B14BF6C2380
:10086000682313445D68E1E7B368039373680293F8
:10087000374600F1140157F804090EC901902069A8
:10088000009506F0A9FD002557F8040F05F07CFB44
:10089000F369A26921696069D21A1944284402F0F7
:1008A000DDFCF369A2692169E069D21A1944401B91
:1008B00002F0D4FCF369E26961692069D21A194433
:1008C000284402F069FDF369E2696169A069D21AFE
:1008D000401B1944013502F05FFD022DD4D1B068F0
:1008E00005F052FBF16920696569E36942185B1AFA
:1008F000013A2944023002F0C3FDF169A269656939
:10090000E369501A5B1A01302944023A02F0B8FD3B
:10091000F56908E701233AE704A801F081FC21E723
:10092000049BDD6E82E700BF10B003082DE9F0479D
:10093000466886B00546304601F022FBC36D009044
:10094000D0F88840D0F88070D0F86880B0F87C90FB
:10095000002B63D0D3F800A0684601F061FC14B905
:1009600009E024683CB16368284698470028F8D01D
:1009700006B0BDE8F0872B68172B00F0A4801DDCC3
:100980000F2B00F08C807CDC0B2B00F0BE800D2B3D
:100990000AD119F0080F07D1EB68DB6823B11B7A85
:1009A00013B130460CF090FD304629460AF060F94C
:1009B0000028DDD028460AF0ADFCD9E7262B74D0FC
:1009C0002EDC1E2B00F0AD80202BEDD1EC68002C2E
:1009D000EAD0314660680DF089FE002800F0BE8044
:1009E000304601F0CDFAB0F87C300190190740F1A3
:1009F0002A8101A801F014FC314660680DF064FE04
:100A00000028D1D0304601F0BBFA0346626801905D
:100A100001A8C3F8802001F003FCC5E79A469BE7D4
:100A20002A2B65D0B3F5107FBED13046D5F80C80A7
:100A300001F0A6FA06ACB0F87C7044F8140D20461C
:100A400001F0EEFBEB68002B92D098F80830002BF9
:100A500000F0A980390740F1B58030460AF0D4FA99
:100A600007F48873B3F5887F82D107F080039BB2C7
:100A7000002B7FF47DAF4146304605220CF0C0FCD0
:100A800076E7112B22D0142B8ED1304601A900F02D
:100A900087FB02AB03CBEB681860596068E7BAF1DB
:100AA000000F81D03046D0477EE7EB68022B7FF401
:100AB0005FAF06A9272241F8142DA8680396049376
:100AC0000DF06AFF54E7C5F80C8051E73046EC683A
:100AD00001F056FA01902389012B05D1B0F87C3042
:100AE00043F48073A0F87C3001A801F099FB5BE728
:100AF000304601F045FAEB680090002B66D0C0F854
:100B00008430684601F08CFB32E7304601F038FA59
:100B100003467030009301F015F8684601F080FB41
:100B200042E7EC68012C55D0002E3FF421AF02F0D3
:100B3000C7FE304601F024FAB0F87C3001901C0763
:100B400006D523F00803A0F87C3030460BF036FEC3
:100B500001A801F065FB05F0D5FD09E7304601F07D
:100B60000FFAB0F87C3001901A0706D523F008037D
:100B7000A0F87C3030460BF021FE01A801F050FBBC
:100B8000314620680DF0A0FD00283FF40DAF30463F
:100B900001F0F6F903462268019001A8C3F880200D
:100BA00001F03EFB00E7304601F0EAF9B0F87C20A6
:100BB0000190034622F480722046A3F87C2001F0C5
:100BC0002FFBD5E630460CF07FFC46E7D0F88430AA
:100BD000EB6096E738460CF01FF918B338460CF076
:100BE00073FC38460BF098FCA8B926B9002F7FF4A7
:100BF000BFAEEF60BCE602F063FE304601F0C0F924
:100C0000B0F87C3001901A0725D501A801F008FB47
:100C100005F078FDEAE7214638460AF015F9002E7E
:100C2000E4D0E8E740460CF0BBFC0746304601F054
:100C3000A7F903466846C3F88070009301F0F0FA04
:100C4000002ED3D0D7E743F00803A0F87C3030461D
:100C50000BF0B4FDCDE643F00803A0F87C3030463D
:100C60000BF0ACFDD1E700BF2DE9F04F0F46B0F916
:100C70000C10B0F90AB08569B0F90E60B0F910A097
:100C8000B0F812804D4C8FB001EB0309B0F9083079
:100C90000493436805939344603502F011FE4FF4CA
:100CA000805E324600974946584603955346029463
:100CB000CDF804E00AF030FA064628B905F022FD26
:100CC00030460FB0BDE8F08F01F05AF9DFF8F4A01C
:100CD00004990690302255460AF01CF90DF1380BA4
:100CE0000FCD5BF8207D07F134040FC40FCD0FC486
:100CF00095E80300189B84E8030000257B66DAF87A
:100D00002830FB65C7F88050FD66C7F88850A7F803
:100D10007C80584601F084FA09A9304600F040FA78
:100D2000BDF92A10BDF92800BDF92C20BDF92E30DF
:100D3000234C03955B1A121A41F28275013201337A
:100D40000294009601950AF0E7F9DAF82830044693
:100D50005B6830469847304601F012F90346584622
:100D60009C66069301F05CFA30460AF03FFC02F004
:100D7000A7FD304601F004F9036F079007A8089318
:100D800001F04EFA059908A807F032F838B905F0D5
:100D9000B9FC05F0B7FC30460FB0BDE8F08F304627
:100DA00001F0EEF8089A0267034607A8079301F0DE
:100DB00037FA30460BF002FDE9E700BF2D090008C5
:100DC000C9130008980100202DE9F041044690B0B5
:100DD000006800F0CDF9B04B6668A3F12C0500283F
:100DE00008BF1D461C2E00F2F880DFE816F0220036
:100DF000F600F600F600F6003500F600F600F60004
:100E0000F600F6005100F600F600FB00F600F600D2
:100E1000F6000F01F600F60049014B014D014F01AC
:100E2000F600F600F6001D006E69304610B0BDE811
:100E3000F081206801F0A4F810ABB0F85A2043F814
:100E40002C0D42F00C02A0F85A20184601F0E8F9E7
:100E500020680CF025FCE8E72B690193B4F910E059
:100E6000B4F91470B4F91860B4F91C40EB6800933D
:100E70003246704639462346ADF82060ADF81CE096
:100E8000ADF81E70ADF82240002602F013F9CCE751
:100E90001C2320680893079001F072F8036D0590F9
:100EA00007A89847064605A801F0BAF9012E40F3B5
:100EB0002681AB6802936B6801932B686269A16914
:100EC00020690093334606F07DF92769A36937440A
:100ED000C6EB0308286805F057F8424639466069B2
:100EE00002F0BCF9686805F04FF8606942460130CD
:100EF000394602F0B3F96B6A022B00F3F3802A6AD9
:100F0000964218DA63692069012E03F1020740F363
:100F10002481024406EB0308013A30444346394633
:100F200002F0AEFAA069821BEB69C01A394643464B
:100F3000013002F0A5FA012ED4BF66696369E76942
:100F40002868CCBFF6180236013F05F01DF83A4676
:100F50003146206902F020FA3A463146A06902F093
:100F60001BFAE769686805F00FF82069023F3A4606
:100F70000130314602F010FAA0693A460138314694
:100F800002F00AFAEB69022B40F38280AB6AE76950
:100F9000A868022BCCBFFF1A023F04F0F5FFEA69F4
:100FA000022A00F396802B6A022B00F388802868BF
:100FB00004F0EAFFA2692169E06902F04FF968686C
:100FC00004F0E2FFA2692169E069013A01310138C8
:100FD00002F044F9AE6A022E60DC0026304610B002
:100FE000BDE8F08104F114010EC9A8682569ADF8C7
:100FF0001E10ADF82020ADF82230ADF81C5004F0E2
:10100000C3FF07A802F068FA00260EE7298B2269C1
:10101000A3696669E5692068ADF81E605B1A0A4439
:10102000ADF82030ADF81C20ADF8225000F0A8FF3C
:10103000036F0590FBB1022005F012F8059AB2F893
:101040007C30C3F3C0030E3302EB8303986804F0D3
:101050009BFF059B586B04F0AFFF059B186F00F0DA
:101060008FFF059B0690B3F95A2007A901F0CEFD2A
:1010700006A801F0D5F805A801F0D2F80026D4E6BC
:10108000AE6AD2E6EE69D0E62E6ACEE66E6ACCE6AD
:101090002B6A022B8BDD79E748030020A269E76900
:1010A0002169A8688C1C951E04F06EFFB91B2A46A6
:1010B00020460131BB1E02F0E3F90026B5E6A26925
:1010C000E869101A3B4631460130023A02F0D8F97D
:1010D0006DE720690244013A02303B46314602F096
:1010E000CFF960E7A86804F04FFF61696B6A0B44B1
:1010F00042463846013B023102F0C2F91BE728683C
:1011000004F042FF2169EA6960690A44013A02F089
:10111000A5F8A269E9696069511A013102F09EF8E7
:10112000676920690137394602F0C4F83946A06979
:1011300002F0C0F8686804F027FF206939460130E2
:1011400002F0B8F8A0693946013802F0B3F827690F
:10115000A3690237A3F10208BCE60244013A023057
:101160003B46394602F08CF9A069B846821EDBE6A0
:1011700010B5044682B080B102F0A2FB204600F018
:10118000FFFE02ABB0F87C4043F8040D1846C4F3F0
:10119000C00401F045F805F0B5FA204602B010BDD4
:1011A0002DE9F04F89B007460D4600F0E9FEC36D0A
:1011B00005909C68012123683846984723680321DD
:1011C0008046384698472368022183463846984728
:1011D00023680021824638469847814605980CF0DE
:1011E00091FE064605980CF095FE03460598448E40
:1011F00004F02004A4B2B4B1B0F95420B0F95840BE
:10120000002A4ED091B2C06E0C44A4B280B10391BA
:10121000029201930AF0BAFE019B029A03990FFA17
:1012200080FE80B205E021462246C06E0028EED145
:1012300086461FFA89FC013ECBEB060B6444013B5A
:101240000CF1FF3C8C44CAEB03030FFA8BFB0FFA43
:1012500088F804446B812A80A5F802E0A5F812C042
:10126000A5F808B0A5F810B0A5F80480A5F80C8082
:10127000A5F80E90EC8005A800F0D2FF08AAB5F9F9
:10128000103042F8043D3846B5F90C30069306A9F3
:1012900000F04CF8069A079BAA812B8209B0BDE8A2
:1012A000F08F406B019302F067FA023081B20C4478
:1012B00002B2A4B20598019BB7E700BF08B5438E00
:1012C00003F020039BB24BB10246B0F9540000B1C9
:1012D00008BD506B02F050FA023008BD184608BD38
:1012E00070B58AB00C46064600F04AFE0AABC26DE5
:1012F00043F8280D1846956800F092FF0196032CDC
:1013000005D8DFE804F00F0C0902172302936B687D
:1013100001A898470AB070BD15230293F7E716237A
:101320000293F4E718230293F1E700BF2DE9F0439D
:1013300083B088460446914600F022FE034602A888
:10134000DA6D40F8083D9568B3F90070B3F90260B2
:1013500000F066FF2B68204600219847054620468E
:101360000AF05CFB60B3044607E001A800F058FFF8
:1013700020460AF0CDFC044610B3204600F000FEE3
:10138000B0F9023001909B1B9D42EED1836A1B068F
:101390000BD5B0F90030D9F80020DB1B934203F1E4
:1013A000FF33E2DCC9F80030DFE7B0F90430D8F8E9
:1013B0000020DB1B9342A4BF0133C8F80030D4E700
:1013C00003B0BDE8F08300BF2DE9F043456887B066
:1013D000044628460AF0AAFC074600F0D1FD034661
:1013E00006A85E6E40F8143DD3F84880D3F880908C
:1013F00000F016FF23680E3B232B3FD8DFE803F0F5
:1014000035463E3E3E3E12123E123E3E3E3E3E3E81
:1014100018243E3E2B3E3E3E3E3E3E3E3E3E3E3E3F
:101420003E3E3E30204609F075FF07B0BDE8F08330
:10143000E368002BF9D0B9F1000F3BD04D4539D00E
:1014400048460CF041F8F0E72146384609F010FC18
:1014500007B0BDE8F083C4F80C8007B0BDE8F083A6
:101460000023E36007B0BDE8F083E3685A68002A10
:1014700004DD1B68092B1DD00A2B1FD0002ED1D0F4
:1014800067602046B04707B0BDE8F0836FF0704357
:10149000984504D0404608F07BFC01F013F8002E7C
:1014A000C3D094E80F0002AC84E80F0020460395F7
:1014B000B047BAE728460CF073F8B6E728460CF0B8
:1014C000B7F8B2E738B5204B204C1D6802F0F8F9A8
:1014D000284608F05DFC05F015F91D4B1D6802F06B
:1014E000EFF9284608F08EFC05F00CF902F0E8F957
:1014F000236801221A7605F005F902F0E1F9236864
:1015000000259D8505F0FEF802F0DAF923685D8577
:1015100005F0F8F802F0D4F9284608F0A5FC05F02B
:10152000F1F80C4B1D6802F0CBF9236805B1DD61C1
:1015300005F0E8F802F0C4F9236800229A76BDE8C5
:10154000384005F0DFB800BF480100204C01002002
:101550004401002040010020014B83E80300704754
:10156000E0430220014B83E803007047E843022078
:10157000014B83E803007047F0430220704700BF2F
:10158000704700BF2DE9F04F4F4E3368DA69B3F969
:101590002250D469B4F80CB083458BB07DD8E18972
:1015A00081427AD3216808914FF0FF31CBEB000BD9
:1015B0000791BBF1FF3F6AD0177EB3F92A80A27C66
:1015C000B3F9249094F810A017FB02F34046069359
:1015D00008F04AFC3368069A0899099002FB0B1040
:1015E0009A6BDB6904900592A27C03924FF0010B89
:1015F000CDF808B0DA7E01929B7E009328463B46E8
:101600005246494607F054FD079801301CD048F077
:10161000020008F029FC2C4A079812680899069BDA
:1016200003FB0013916BD26905910493A37C039390
:10163000CDF808B0D37E0193937E009352463B468B
:101640004946284607F034FD33681F4FDB695A7E50
:101650001B7E9A4214D9B8F1020F11D088F0040011
:1016600008F002FC3B68DB69187ED97E9A7E5B7EBF
:1016700000FB01910AFB02524B44284607F028FF69
:101680009DF8240008F0F0FB3368B3F92250627C27
:1016900015445D840BB0BDE8F08FA1680029F6D039
:1016A0000F88B842F3D3B1F802E08645EFD349681A
:1016B000C01B80B26768089701EB800731F920B042
:1016C000B7F90210079174E74C010020044B1B6826
:1016D000DB69DB6909B11A7C0A60587C704700BF7E
:1016E0004C01002002230B80704700BFC3699A8918
:1016F0008A4202D8DA898A4211D2986818B10388DE
:10170000994201D20020704742888A42FAD3C91A0E
:10171000436833F82100C043C0F3C0307047012054
:10172000704700BF2DE9F04F3E4D2B68DA69B3F9E1
:101730002A60D36989B043B11A88904202D359888C
:10174000814205D29B68002BF6D109B0BDE8F08F2D
:10175000D3F80480DFF8CC90841A08EBC407304635
:1017600097F802B008F080FB8246286818F8342009
:10177000D0F81CE0D0F838C09EF81830B0F924102A
:10178000B0F92200CDF814C006934FF0010C7B682D
:101790000493CDF80CB0CDF808C09EF81BC0CDF86E
:1017A00004C09EF81AE0069BCDF800E007F080FC2C
:1017B0002B68DA69537E92F818B05B4523D9022E64
:1017C000069320D0D17E079101F04AFF064601F032
:1017D00011FF04F0D9FBD9F8002018F834C0D469FF
:1017E000B2F9220094F81BE00799B2F92440069B55
:1017F0000CFB0E0201FB034301FB0B4107F068FEEB
:10180000304604F0C1FB504608F02EFB2B68797877
:10181000D8695A8C807E00FB01225A8409B0BDE849
:10182000F08F00BF4C010020114B70B41B68DD69C4
:10183000EB6943B11A88904202D35C88844205D296
:101840009B68002BF6D1184670BC70475E68AC7E72
:10185000821A06EBC2035B7813FB04F00029F3D075
:1018600016F8323014FB03F30B6070BC704700BFF6
:101870004C01002001230B80704700BFC06950B1AC
:1018800003888B4202D843888B4203D280680028A9
:10189000F6D17047012070472DE9F047234E336899
:1018A000002B3FDD224D234F2C68D7F80090C3EB6F
:1018B000431804EB880808F10C080C344FF0000AB8
:1018C000A4F10803742218464946FEF71EFD221FA4
:1018D0002063A06344F80CAC6263E4607C34A045F0
:1018E000EED10024A04603E092B13268904514DAAC
:1018F00018F042FA2B681A59904203EB040108F1E0
:10190000010804F17C04EFD104313960BDE8F087AF
:10191000086004313960BDE8F08719460431396048
:10192000BDE8F087024B034F1968EDE7380200204D
:10193000284602204C010020F8B5194F194B1A4EC9
:10194000384640F80C3F06F005FA3468C4EB4414FE
:10195000A400204600F04EF9144B386022461B6864
:10196000002198474FF0FF33736018F00BFA33688B
:10197000002B11DD0024254603E072B133689D423F
:101980000ADA18F0F9F93B681A599042234405F134
:10199000010504F17C04F0D1F8BD1860F8BD00BF6A
:1019A0002846022061640108380200204402002019
:1019B00009B9084670472DE9F0410E46054601F089
:1019C0007FFF01F07DFF30460DF056FB044604F02A
:1019D00099FE24B3174FFA697B6B0132FA6113F851
:1019E0003420013203F8342003EBC403D3F804801D
:1019F00008F10800C5B1104B324629461B689847CC
:101A0000D8F800107A6B0B4D12F83130012B03D946
:101A1000E86908B10138E861013B02F8313004F0AF
:101A200071FE2046BDE8F081044B324629461B6812
:101A30009847E5E7CC4702204002002044020020FE
:101A400000B9704710B5044601F03AFF20460DF08A
:101A500013FB044604F056FE204610BD70B5054643
:101A600001F02EFF25B9002404F04CFE204670BD85
:101A700001F026FF28460DF0FFFA044604F042FE6E
:101A8000002CF0D0144E1549F269736B0132F261EB
:101A900013F83420013203F8342003EBC4032A4640
:101AA0005D680B6805F10800002198472968726B92
:101AB00012F83130012B01D9F06930B9013B02F83D
:101AC000313004F01FFE204670BD0138013BF0614B
:101AD00002F83130F5E700BFCC4702204402002075
:101AE000024B21F0030183E803007047F843022012
:101AF00000B9704770B50D4C054601F0E1FE636B0F
:101B0000EE003344596848680DF07AF8626B6368F8
:101B1000616A1644013300206360716002F8350089
:101B20006562BDE8704004F0EDBD00BFCC47022007
:101B300028B1034AD36B036003B15860D063704788
:101B4000CC470220F8B5054601F0BAFE2C68B4B1C6
:101B50000E4E01F0B5FE736BE7003B4459684868D0
:101B60000DF04EF8716B7368726A0F4401330020F8
:101B700073607A6001F83400746204F0C3FD0023DE
:101B80002B60BDE8F84004F0BDBD00BFCC4702208B
:101B900000292BDD2DE9F0470025154F8A46041F4B
:101BA000A94601F08DFE54F8046F0135B6B101F07D
:101BB00087FE7B6B4FEAC6084344596848680DF0BE
:101BC0001FF8796B7B687A6A884401337B60C8F8B8
:101BD000042001F836907E6204F094FDC4F8009071
:101BE00004F090FDAA45DCD1BDE8F087704700BF46
:101BF000CC470220F8B5894E96F828300446002BD1
:101C00002FD00334356CF26B24F003040434A54266
:101C100038BF254662B152F8043C9D42144604D1B7
:101C200014E054F8043C9D4210D02468002CF8D1F4
:101C3000F368B46B1C4454F8041C611A0B68002B45
:101C400065D14B689D426CDD002408E023680BB130
:101C500061685960616801B10B60A24253D02046AF
:101C6000F8BD6F4B9A685868012186F828100AB9A8
:101C700082089A605A25356210272022402519686B
:101C80003764B264356580274FF480724FF4007575
:101C9000B7653266B5664FF480674FF400624FF463
:101CA0008055A1F114033767B267C6F880504FF42E
:101CB00000574FF480424FF400450344C6F8887043
:101CC000C6F89020C6F898504FF480374FF4003291
:101CD0004FF48025C6F8A070C6F8A820C6F8B0500A
:101CE000022201254FF40027B16373633261F06073
:101CF000C6F8B8705D60756275600CF081FF11F018
:101D0000FFFF35637DE72368F3632046F8BD0020BD
:101D100014F0B6FF54F8041C611A0B68002B93D121
:101D20008FE7D6F8B8703D4A581B041DBB420C44DF
:101D300072D2D2F8B070BB426CD2D2F8A870BB425B
:101D400066D2D2F8A070BB4260D2D2F898709F429F
:101D50005AD9D2F89070BB4254D2D2F88870BB42A4
:101D60004ED2D2F88070BB4248D2926F934243D297
:101D7000376F2A4ABB423DD2976EBB4238D2176EAC
:101D8000BB4233D2976DBB422ED2176DBB4229D2D4
:101D9000976CBB4224D2126C93420CD2F2687369E6
:101DA000521B2B44F260736110B944F8045C56E78F
:101DB0000CF026FFF9E700223768D1F808E0FB1A9B
:101DC0003360CB68BEF1000F01D0CEF8043013B100
:101DD000C3F800E0E2E706EBC202C2F844E0DDE748
:101DE0000122E9E70222E7E70322E5E70422E3E72D
:101DF0000522E1E70622DFE70722DDE70822DBE72D
:101E00000922D9E70A22D7E70B22D5E70C22D3E72C
:101E10000D22D1E70E22CFE70F22CDE7CC470220DB
:101E2000F8430220F8B54A4C94F82830002B3DD0F6
:101E3000D4F8BC30464A3BBBD2F8B43023BBD2F80E
:101E4000AC300BBBD2F8A430F3B9D2F89C30DBB97C
:101E5000D2F89430C3B9D2F88C30ABB9D2F8843010
:101E600093B9D36F83B9536F73B9E36E63B9536E8C
:101E700053B9D36D43B9536D33B9D36C23B9536C94
:101E800013B96FF00B00F8BD9B68002BF9D000224E
:101E900001E09B6843B159689B689142104684BF3A
:101EA0000A461046002BF4D10C38F8BD294B9A682D
:101EB0005868012184F828100AB982089A601968C4
:101EC000A1635A261022202526622264A564402799
:101ED00080264FF480724FF40075A1F1140327653A
:101EE000A6652266A5664FF480674FF400664FF43E
:101EF00080524FF4005503442767A667C4F880203A
:101F0000C4F888504FF480474FF400464FF48032B5
:101F10004FF40035C4F89070C4F89860C4F8A0205D
:101F2000C4F8A850022201254FF480274FF4002660
:101F300063632261E060C4F8B070C4F8B8605D60AB
:101F4000656265600CF05CFE11F0DAFE25636FE7F8
:101F5000CC470220F843022030B1044B5B6B03EB0B
:101F6000C000436858680C38704700BFCC47022057
:101F7000024A936901339361704700BFCC47022046
:101F8000074AD169536B0131D16113F83020013216
:101F900003F8302003EBC00358680830704700BFD7
:101FA000CC47022009B9002070472DE9F8430F46BD
:101FB000064601F085FC38460DF05EF8054604F053
:101FC000A1FB002D65D0002E5AD0334C636B4FEA35
:101FD000C60843445B6859680C398F42A8BF0F4656
:101FE00001F06EFC636BE26913F835002B49013098
:101FF00003F8350003EBC5000232D0F80490E2612B
:1020000013F83620013203F8362043443A465F681D
:102010000B6809F1080007F108019847D9F800108A
:10202000636B13F83120012A01D9E06970BB013AD2
:1020300003F83120396813F83120012A02D9E06908
:10204000154F00BB013A03F8312001F039FC636BF6
:1020500043440027596848680CF0D2FD606B626801
:10206000616A00EB080301326260596000F8367063
:10207000666204F047FB04F045FB2846BDE8F883A0
:102080002846BDE8F8830138F861DBE70138E061F4
:10209000CDE70020BDE8F883CC47022040020020B5
:1020A000F8B5584C01F00CFC94F82830002B57D0B0
:1020B000D4F8BC30534A9BBBD2F8B43083BBD2F8BF
:1020C000AC306BBBD2F8A43053BBD2F89C303BBBD6
:1020D000D2F8943023BBD2F88C300BBBD2F88430CA
:1020E000F3B9D36FE3B9536FD3B9E36EC3B9536E8A
:1020F000B3B9D36DA3B9536D93B9D36C83B9536C92
:1021000073B96FF00B034049DA1781FB0313C2EB7D
:102110006313246A04FB03F404F0F4FA2046F8BDC8
:102120009B68002BF5D0002201E09B6843B1596801
:102130009B689142104684BF0A461046002BF4D19A
:102140000C38B0F5800F0346DDD8226A2E4B02FB17
:1021500000F0A3FB00235C0904F0D4FA2046F8BD8C
:102160002A4B9A685868012184F828100AB9820815
:102170009A601968A1635A261022202526622264DB
:10218000A564402780264FF480724FF40075A1F1BA
:1021900014032765A6652266A5664FF480674FF491
:1021A00000664FF480524FF4005503442767A6673A
:1021B000C4F88020C4F888504FF480474FF400469C
:1021C0004FF480324FF40035C4F89070C4F8986032
:1021D000C4F8A020C4F8A850022201254FF480279B
:1021E0004FF4002663632261E060C4F8B070C4F865
:1021F000B8605D60656265600CF002FD11F080FD05
:10220000256355E7CC4702201F85EB51F843022098
:10221000024A9369013B9361704700BFCC4702209B
:1022200030B403680A4A53F8085C0446506B10F84F
:102230003530012B03D9D16909B10139D161013B95
:1022400000F8353000221046226030BC704700BFD5
:10225000CC470220034B5B6B03EBC00040680830A7
:10226000704700BFCC470220A0B32DE9F0410446DF
:1022700082B008467ABB15462046FFF781FE02AEC3
:10228000078846F8080DD0F804803046FFF7C8FFED
:10229000791C40468900FFF785FE804660B3FFF752
:1022A0006FFE02AB43F8040D40F827501846FFF7C5
:1022B000B7FF2046FFF764FE028800900346013214
:1022C000C0F8048030461A80FFF7AAFF002002B051
:1022D000BDE8F08170471146FFF76AFB054600280C
:1022E000CAD12046FFF74CFE02AB43F8080D184652
:1022F000FFF796FF0120EAE72846FFF7F9FB0120E8
:10230000E5E700BF0820FFF7A9BB00BF00B9704791
:1023100030B583B00546FFF733FE0090406838B90A
:102320006846FFF77DFF2846FFF7E2FB03B030BDAC
:10233000FFF726FE009B01901B885BB1002400E0A4
:10234000019800EB8400FFF7FDFB009B1B88013424
:10235000A342F5DC01A8FFF763FF00980430FFF704
:10236000F1FB009B00221A80DAE700BF10B582B0B3
:1023700018B90446204602B010BDFFF701FE02ABBB
:10238000048843F8040D1846FFF74AFF204602B0C0
:1023900010BD00BF10B582B008B30C46FFF7F0FDCA
:1023A000038800909C4206D300246846FFF738FF5C
:1023B000204602B010BD40680028F5D0FFF7E0FDD0
:1023C00002AB50F8244043F8040D1846FFF728FFED
:1023D000002CE9D02046FFF7D3FD0446E5E704468C
:1023E000204602B010BD00BF2DE9F041144606465C
:1023F000884601F065FA204601F03EF9E8B9A700E9
:102400001B4D3B1905EB8303DA68B24206D11B6909
:10241000434503D1BDE8F04104F074B93B1905EB25
:1024200083035869D0B93C4405EB8404E660C4F8E2
:102430001080BDE8F04104F065B90D4B04EB840455
:1024400003EB840463689A685968C2EB0802711A46
:1024500003F0D6FDBDE8F04104F054B95B689A681A
:102460005968C2EB0802711A03F058F9DBE700BFA4
:1024700050470220C3B2CAB29A1A92B230B415B20F
:10248000002DBCBF524215B2C0F30723C1F307228F
:102490009B1A9BB2090C1AB2C1EB1041002A89B2F7
:1024A0000CB2BCBF5B421AB2002CBCBF49420CB29A
:1024B00002FB02F205FB0520A1B201FB010030BCCA
:1024C000704700BF2DE9F041002182B0084601F0BD
:1024D00069F901F0F5F9042007F0C6FC174B1B69F8
:1024E000DD6C1C6DA5F57F57A4F57F5605F57F556E
:1024F00004F57F5480463F3F3F353F3E3F346846BA
:10250000ADF80070ADF80450ADF80260ADF80640CB
:102510000BF008FD48B123462A463146384606F0FE
:10252000D7FF0BF093FB0028F5D1404607F09CFC49
:1025300004F0E8F802B0BDE8F08100BF3C010020E3
:102540002DE9F04182B016461C4607460D4601F0C3
:10255000B7F9042007F088FC134B1B69DA6C1B6D7C
:102560008046174416441D441C446846ADF800706C
:10257000ADF80460ADF80250ADF806400BF0D2FCA7
:1025800048B1234632462946384606F0A1FF0BF0F3
:102590005DFB0028F5D1404607F066FC04F0B2F878
:1025A00002B0BDE8F08100BF3C0100202DE9F047FA
:1025B000044682B00D461646002B38D09A46009647
:1025C00026680B9B0A9A51462046B047074618B921
:1025D000384602B0BDE8F08709F09AF9618A804672
:1025E000384608F031FC38460BF006F9013D40460C
:1025F0000BF002F9002DC8BF4FF0000904DC1AE00F
:102600000BF0FAF8013D16D054F81C6FCDF800908D
:10261000002320461A464146B04706460028EFD11F
:10262000384608F0C3FE304602B0BDE8F08709F036
:102630007DF98246C3E740461D210AF06DFEBAF1DE
:10264000FF3FC5D001F03CF909F0F6F960B9BA4591
:1026500002D038460AF0A4FF04F054F8384602B01D
:10266000BDE8F0870028F4D0FFF7F4FD80698742C9
:10267000F8D1F1E780B582B000AF7860054B1B68F8
:10268000002B03D0034B1B687868984700BF0837BE
:10269000BD4680BD8C480220012B12DCF8B50646F1
:1026A0001C2017460C461D46FFF7A4FAB8B154B1DA
:1026B00004610023836085618782C6600360436094
:1026C000F8BD00207047074B53F825200AB9F0E702
:1026D0001A461368002BFBD113690361E9E7002058
:1026E000F8BD00BFAC480220012B3BDC2DE9F843CC
:1026F00081461C2090460F461E46FFF77BFA054692
:1027000000287FD0414A002F31D00023DFF804E1B8
:1027100052F8264003609EF8001007618E428661E1
:10272000A0F81480C0F80C904360836002DB731C37
:102730008EF80030002C5DD021464C68002CFBD177
:10274000D9F80000CB681B6883422CDD096800299A
:10275000F8D148B92E4B16361A68284642F826504A
:10276000BDE8F883002070472846BDE8F88352F89A
:102770002610002930D0084600E018460368002BD8
:10278000FBD1DFF890E000692B6028619EF8000023
:10279000AE618642A5F81480C5F80C906B60AB6002
:1027A000CBDB0C46C3E70AD04B6843B31D606B60BC
:1027B0008D4214BF0B4600234D602B60C9E7B8F172
:1027C000010FF1D104E0D9680C6884421946EBDBB3
:1027D0000B68002BF7D1E7E7DFF838E001609EF8DF
:1027E000003086619E42A0F81480C0F80C904160D1
:1027F0008160D6DA42F82650D9F80000A9E742F8FD
:102800002650D5E70020BDE8F88300BFAC48022081
:102810004C010020A4480220FFF78AB900283CD0D0
:1028200070B48469012C03DD0123184670BC704725
:102830001E4B1F4D1A789442A4BF621C1A7055F8A3
:1028400024300BB92FE013465A68002AFBD1C26826
:10285000116802E01B68002BE6D0DA68126891422A
:10286000F8DB0DD05A68DAB110604260984214BFAC
:102870001A46002258600023026070BC1846704758
:10288000828A012AEED104E0D3681E68B142134661
:10289000E8DC1A68002AF7D1E4E7012318467047FC
:1028A00045F82400E2E745F82400BEE7A4480220EA
:1028B000AC48022000284DD02DE9F041DFF89CE023
:1028C000254F9EF80060BC4602E02846002D27D028
:1028D00084690568012CF8DCB44257F82430A4BFA1
:1028E000661CF6B20BB932E013465A68002AFBD1D7
:1028F000C268116802E01B68002BE6D0DA68126833
:102900008A42F8DC10D05A68A2B110604260984246
:1029100014BF1A460022586002602846002DD7D105
:102920008EF80060BDE8F081828A012A0BD05A68D7
:10293000002AEAD147F82400E9E7D368D3F80080F9
:1029400088451346DFDB1A68002AF6D1DBE74CF82E
:102950002400BAE7704700BFAC480220A448022018
:102960000F4A816952F8213098420AD042680AB170
:1029700003681360036803B15A6000230360436077
:102980007047036842F821302BB100225A60426838
:10299000002AEED1F0E74268002AEAD1EDE700BF55
:1029A000AC48022000207047012810DC094B53F886
:1029B000200068B1C3681B68994204D109E0C3686C
:1029C0001B688B4204D000680028F8D170470020B3
:1029D00070477047AC48022001280EDC084B53F8C2
:1029E000200058B1C3681B681BB908E0C3681B68A6
:1029F00023B100680028F9D1704700207047704764
:102A0000AC48022000B970472DE9F04182B01E4663
:102A100015460C460746FFF7B3FA02AB026843F8C7
:102A2000040D1846D2F80080FFF7FAFB33462A4619
:102A300021463846C04702B0BDE8F0812DE9F84391
:102A4000074617F09BF9074417F098F93E1A002E35
:102A5000DFF86090DFF8608022DD00F0E3FCD9F859
:102A600000309E42A8BF1E4600F02AFFD8F8004062
:102A7000FFF77EFAB4B1254603F044FE013DFBD1D9
:102A8000304617F077F900F01BFF013CFBD1FFF750
:102A9000BFFB03F037FE17F071F93E1A002EDCDCA5
:102AA000BDE8F883304617F065F9FFF7B1FB03F096
:102AB00029FEF0E7500100202C4602202DE9F04FBE
:102AC000474E83B0044600F0FBFE00F0EBFD336898
:102AD0000746B3F9229000F02BFE3268938C1FFA60
:102AE00080FACAEB03031BB29384217800294DD0EE
:102AF000BFB2B04647F6FF71204604F09FFF014683
:102B00008346204604F058FF31688B8D03F00303A1
:102B1000012B5AD0022B5CD085B24FF0000E4A8CAC
:102B2000B1F92430ADF80230CEEB020292B210B20D
:102B3000013B05F1FF3E964448843B446A465946B2
:102B4000ADF800002046ADF80630ADF804E004F022
:102B5000CBF83368BDF802209A845946204603F02A
:102B6000A1FC225C0A2A04EB00031BD00D2A19D019
:102B7000BDF80000D8F8002005445584197819B133
:102B800059785C1C0029B5D1B2F92430918D9A4452
:102B900021F00303A2F824A0938503F0B3FD03B052
:102BA000BDE8F08F3268918D01F0030101390129F0
:102BB0008ABF118CA2F82290518419780A29DED19B
:102BC000918C394491841978D9E71FFA80FE7546B3
:102BD000A5E700EBD072C2F34F0E85B29FE700BFAE
:102BE0004C01002070B50E461546044600F068FE04
:102BF000054B1B685E849D8414B12046FFF75EFF81
:102C0000BDE8704003F07EBD4C01002020B3F0B55C
:102C10000C4683B00546164600F052FED4B120465D
:102C20000AF0DAFD074638B168463A46214604F014
:102C300065FF68460AF0D0FD3246214647F6FF732D
:102C4000284604F0ABF838460AF0C6FD03F05AFDFA
:102C500003B0F0BD2746EFE7704700BF08B100F0B2
:102C600001B870472DE9F04F89468BB015460446F0
:102C700003921F4600F024FEB9F90030B9F90410A0
:102C8000B9F906000193CE1A0291B9F902B0059084
:102C900000F008FD15F00C0806F10106049076D14D
:102CA0001FFA80FA48460AF097FD02460490A8B140
:102CB000019800210B4660F30F01029860F30F03A7
:102CC00005986BF31F4160F31F43069106A8494620
:102CD000079304F013FF06A80AF07EFD039B03F0A0
:102CE00003080AF1FF33039343461FFA8BF5B046FE
:102CF0001E4615E0022E34D01EB9B9F80030ADF8EA
:102D000020302046594608AA03F0EEFF20463A46F6
:102D1000414605F02FF9044455442378ADB273B30E
:102D20003A464146204605F08FF9039BBDF8042042
:102D3000ADF820200146EB18BDF80820ADF8225070
:102D400083462046ADF82420ADF8263004F034FE4A
:102D5000012ECFD1B9F804300133181AADF8200094
:102D6000CFE7B9F90010B9F904305B1A181A01302D
:102D700000EBD07001EB6000ADF82000C1E70498D3
:102D80000AF02AFD03F0BEFC0BB0BDE8F08FA246AE
:102D900000F096FD3A4631465046002505F0EAF827
:102DA00040B182443A4631465046013505F0E2F8DA
:102DB0000028F6D103F0A6FCB8F1080F08D0B8F14E
:102DC0000C0F0FD0B8F1040F02D0BDF810A069E7C6
:102DD000BDF810A0059B15FB0AF501335D1B0FFA2A
:102DE00085FB5FE7059B0499CBEB0303013305FBF0
:102DF000113505EBD5750BEB65050FFA85FB1FFA51
:102E000081FA4FE72DE9F04FDFF8F49089B00446DE
:102E100090460F4600F054FDD9F800302088DA6C57
:102E20001D6D63881744A844421E013B3A44434445
:102E300006A8ADF81870ADF81A80ADF81C20ADF8F2
:102E40001E300BF06FF800284ED0DFF8B8A0CB464C
:102E50001AE040F0020003F0A3F8216921B3D4F88E
:102E60000CE0A668638822888DE84040012003902A
:102E700002900E6838464146B047284603F090F865
:102E80000AF0E4FE00282FD00020E66803F088F85E
:102E9000054616B13379002BDBD125F0020003F093
:102EA0007FF821690029DAD1D9F80020DAF800305A
:102EB000527CE06821469847E188D0B16388228837
:102EC000A6680590A08802910121039001910091CC
:102ED00038464146049606F0EBF8284603F060F8C1
:102EE0000AF0B4FE0028CFD103F00CFC09B0BDE815
:102EF000F08F012904BFDBF80030986BDEE700BFDC
:102F00004C0100203C0100202DE9F04F91B081469A
:102F10001E460F46904600F0D3FC654B1C68E56CDE
:102F2000246DA019E11905EB090305EB080204461D
:102F300008900EA8029301920791ADF83830ADF8D1
:102F40003C20ADF83A10ADF83E400AF0EBFF002807
:102F500000F09180019B029A9DF868409DF86C708A
:102F6000C2EB030B1A9AC2F307201B9AC2F307267F
:102F70001A9AC2F307411B9A0BEBDB735B10C2F387
:102F8000074E1A9A0BFB04353C1B120E06940BFBE2
:102F90000034301A03900BFB01300BFB02330D930E
:102FA0001B9B0A95C1EB0E01C2EB13630B940C90B3
:102FB000049105935E4600F053FB1A9B1B9A0990FF
:102FC00093426AD0002E52D0029D019A95425CDC59
:102FD0000AAF024697E880074FF0010B06E00BF1BD
:102FE000010B019B0135AB4222462FDB9AFBF6F326
:102FF00099FBF6F41B0697FBF6F143EA044398FBB2
:10300000F6F441EA042405991C43039B8A4404997D
:103010009844029B89440699AB4210460F44E0DA7B
:103020009442DCD006F0EEFEBBF1010FCBEB0500C5
:10303000089B079905F1FF3222D006F049FA019B5F
:103040000135AB424FF0010B2246CFDA204606F0A5
:10305000D9FEBBF1010F1AD0019A089B0799CBEB5F
:103060000200013006F034FA099806F0CBFE0AF0AF
:10307000EDFD00289FD103F045FB11B0BDE8F08FB6
:103080001A46681E06F0FAF9ABE706F0BBFE089A8E
:103090000799019806F0F2F9E6E7184606F0B2FE45
:1030A000089B019A0799029806F012FADCE700BF24
:1030B0004C0100202DE9F04F91B081461E460F468D
:1030C000904600F0FDFB644B1C68E56C246DA01974
:1030D000E11905EB090305EB0802044601900EA86F
:1030E000079308920291ADF83830ADF83C20ADF866
:1030F0003A10ADF83E400AF015FF002800F091802C
:10310000019B029A9DF868409DF86C70C2EB030B1E
:103110001A9AC2F307201B9AC2F307261A9AC2F31F
:1031200007411B9A0BEBDB735B10C2F3074E1A9A35
:103130000BFB04353C1B120E06940BFB0034301ABB
:1031400003900BFB01300BFB02330D931B9B0A9585
:10315000C1EB0E01C2EB13630B940C900491059329
:103160005E4600F07DFA1A9B1B9A0990934269D043
:10317000002E52D0029D019A95425BDC0AAF0246B6
:1031800097E880074FF0010B06E00BF1010B019B64
:103190000135AB4222462FDB9AFBF6F399FBF6F49E
:1031A0001B0697FBF6F143EA044398FBF6F441EA69
:1031B000042405991C43039B8A4404999844029B68
:1031C00089440699AB4210460F44E0DA9442DCD0C1
:1031D00006F018FEBBF1010FCBEB050105F1FF3343
:1031E000089A079822D006F073F9019B0135AB428B
:1031F0004FF0010B2246CFDA204606F003FEBBF16A
:10320000010F19D0019B089A0798CBEB03010131FC
:1032100006F05EF9099806F0F5FD0AF017FD0028A2
:103220009FD103F06FFA11B0BDE8F08F691E06F070
:10323000C5F8ACE706F0E6FD089A0199079806F094
:10324000BDF8E7E7184606F0DDFD019B089A0299F4
:10325000079806F03DF9DDE74C010020F0B5144F6A
:1032600083B006460D46144600F02AFB3B68196DF4
:10327000DA6C0E4433B2154414446846ADF800507D
:10328000ADF80440ADF80230ADF806300AF04AFE61
:1032900050B13B685B6E22461B6831462846984712
:1032A0000AF0D4FC0028F4D103F02CFA03B0F0BDEE
:1032B0004C01002070B5134E82B005460C4600F05C
:1032C000FFFA3368DA6C1B6D15441C442AB223B232
:1032D0006846ADF80420ADF80020ADF80630ADF832
:1032E00002300AF01FFE48B133685B6E21465B680E
:1032F000284698470AF0AAFC0028F5D103F002FA04
:1033000002B070BD4C0100202DE9F04782B00446A8
:1033100089469246984600F0D3FA1E4B1F683E7EBF
:10332000FD6C3F6D013EB6B22C44B9445544B844DF
:10333000A11B7219C6EB090368464644ADF800109C
:10334000ADF80420ADF80230ADF806600AF0EAFDF1
:10335000D8B109F1010708F1FF362A46494620464F
:1033600006F02CF82A464146204606F027F8324659
:103370003946204606F082F832463946284606F09D
:103380007DF80AF063FC0028E7D103F0BBF902B036
:10339000BDE8F0874C01002070B582B006461446A7
:1033A0000D4600F08DFA104B1A68D36C126D1E4456
:1033B00033B2154414446846ADF80250ADF80640E7
:1033C000ADF80030ADF804300AF0ACFD40B1224653
:1033D0002946304606F052F80AF038FC0028F6D1AB
:1033E00003F090F902B070BD4C01002030B585B0FB
:1033F00000232A220D46694601930293039300920B
:10340000044609F079FF039B13B1012283E82400ED
:1034100000F056FA20460AF007FB03F073F905B0F6
:1034200030BD00BF2DE9F041124F134EDFF84C8044
:1034300000253C681CB1A047041C18BF012408F0FB
:10344000E9F83368002818BF01244BB1984738B118
:10345000D8F8003013B1012498473CB10125E8E7C2
:10346000D8F80030002BF7D1002CF7D12846BDE862
:10347000F08100BFD0480220D4480220CC4802206E
:10348000F0B583B0074616461C460D4600F018FA04
:10349000104B1B68DA6C1B6D174416441D441C440A
:1034A0006846ADF80070ADF80460ADF80250ADF8B4
:1034B00006400AF037FD48B12346324629463846D1
:1034C00006F006F80AF0C2FB0028F5D103F01AF95D
:1034D00003B0F0BD4C010020F0B583B0B0F900702E
:1034E000B0F90260B0F90450B0F9064000F0E8F914
:1034F000104B1B68DA6C1B6D174415441E441C44AA
:103500006846ADF80070ADF80450ADF80260ADF853
:1035100006400AF007FD48B123462A4631463846A0
:1035200005F0D6FF0AF092FB0028F5D103F0EAF887
:1035300003B0F0BD4C010020002850D0C388013BEF
:1035400010B5848880681F2B47D8DFE803F0162366
:1035500046314646463C4646464646464640464630
:103560004646464646464646464646464610A3100A
:1035700002FB031150F8210010BD02FB04F200EB26
:10358000D104C843A35C00F0070023FA00F000F068
:10359000010010BD02FB04F200EB91046FEA410050
:1035A000A35C00F0060023FA00F000F0030010BD59
:1035B00002FB04F200EB5104CB07A05C4CBF00F00F
:1035C0000F00000910BD02FB0404605C10BD631015
:1035D00002FB031130F8110010BD002010BD704730
:1035E000034B53F82000C36808219B6A184700BFAB
:1035F000AC48022010B500F063F905F0A9FF06F011
:103600007FF9044603F07EF8204610BD10B504464D
:1036100000F056F9054B1B68DB6900215B6820460A
:103620009847044603F06EF8204610BD4C01002078
:1036300038B504460D4600F043F9064B1B68DB69BC
:1036400029465B6820469847044603F05BF820460D
:1036500038BD00BF4C01002008B108F03FB97047E9
:1036600010B500F02DF905F07BFF06F049F904468E
:1036700003F048F8204610BD01289ABF024B53F8CA
:1036800020000020704700BFD444022010B500F095
:1036900017F9034B1B681C7C03F034F8204610BD5F
:1036A0004C01002010B500F00BF9044B1B68DB69DE
:1036B0005C7E03F027F8204610BD00BF4C010020BF
:1036C00070B504460E46154600F0FAF820462A4624
:1036D000314605F0EBFF044610B1002333602B6048
:1036E00003F010F8204670BD38B505460C4600F0D2
:1036F000E7F8064A064BB2F90020B3F900302A6019
:103700002360BDE8384002F0FDBF00BF92480220B0
:103710009448022016F032BB04483423352161223C
:10372000017002718370C370704700BF34010020C4
:1037300010B500F0C5F80F4B1A68938D03F00C0319
:10374000082B08D00C2B06D0042B0BD0002402F041
:10375000D9FF204610BDD3691C7E640802F0D2FF59
:10376000204610BDD3691C7E013C02F0CBFF2046F1
:1037700010BD00BF4C010020027EC07E02FB00F0A5
:10378000704700BF024B53F820301B691868704720
:10379000AC480220024B53F820301B695868704730
:1037A000AC48022038B505460C4600F089F8044BB9
:1037B0001B685D849C8402F0A5FF002038BD00BF1B
:1037C0004C01002090B583B000AF344A334B1B68E6
:1037D00023F001031360324B01221A6000BF304B0B
:1037E0001B68002BFBD12F4B2F4A1A602D4B1B68F7
:1037F0002E4A934200D0FEE703F0DCF92C4B2E2238
:103800001A7016F0BDFA2B4812F00EF915F07AFC7A
:10381000786005F0C5FF0346002B0CBF0123002391
:10382000DCB206F003F80346002B0CBF0123002393
:10383000DBB22343DBB2002B09D005F0C7FF0446FF
:1038400006F00AF803461946204606F007FB002159
:10385000002002F0E5FB08F091FEFEF71DF8164B84
:103860001B68002B12D00DE0134B1B681B68002B4C
:1038700003D0114B1B681B6898470F4B1B685B6894
:103880000D4A13600C4B1B68002BEDD10B4B012232
:103890001A707B6818460C37BD4690BD002000E0CA
:1038A0000830024000300240C2A507F4CDB5E8B5AB
:1038B000904802200C440220844402209C480220AC
:1038C0002DE9F041234D6B6823B116F055FAAB6832
:1038D000984204D016F06AFA16F04EFAA8606B68A7
:1038E0000133012B6B6001D0BDE8F0811A4F3B68BA
:1038F000002B29DD0024264606E042B33B68013652
:103900009E4204F17C041FDA16F036FA2B681A592D
:1039100090422344F1D17B68B342E5D0002B10DB09
:103920002A68C3EB431302EB8308FFF73BF82B68CD
:10393000C8F878001C44094BA06F04341C60FEF7E3
:10394000B9FF7E60BDE8F08100242646E3E71860F9
:10395000E1E700BF28460220380200204C01002089
:1039600010B582B028B9134B1B681C6E14B902B095
:1039700010BD0446FFF7A4FF2046FEF701FB02AB93
:10398000446943F8080D1846FEF74AFC1CB902F0DA
:10399000B9FE02B010BD2046FEF7F2FA02AC826812
:1039A00044F8040D936898472046FEF739FC02F06E
:1039B000A9FEEEE74C0100202DE9F04105460E4638
:1039C000FFF77EFF284600F0BFFA0746284600F0C2
:1039D000FFFA04464EB1304600F0B6FA874217D0DF
:1039E00002F090FE0120BDE8F081284600F072FA56
:1039F00004FB07F23AB150F8043B013A43F07F432D
:103A000040F8043CF7D102F07DFE0020BDE8F081D3
:103A1000304600F0DDFA8442E2D1304600F042FA4E
:103A2000174B8342DCD1284600F020FA2028D7D15A
:103A3000304600F04FFA8046002DE4D0284600F0D2
:103A400049FA00264FEA870E3B460246002179B12B
:103A50000D464908354203D0156845F07F4515608D
:103A6000013B02F10402F2D1013C7044ECD1CAE7FF
:103A700098F80060402108F101088025EAE700BFBE
:103A800054B0030800B97047014A114600F002B86B
:103A900001F0FFFF2DE9F04784B00C4615460646BD
:103AA000FFF70EFF002002F07BFADFF8E480D8F881
:103AB0000030814630461F6EFEF762FA03680090C0
:103AC000986902F099F9314B9C42009B04BFB3F90D
:103AD0000440B3F906501A895B89ADF80840013AF1
:103AE000013B22442B448246ADF80C20ADF80E3049
:103AF000ADF80A5007F02CFA6846FEF791FB02A8D1
:103B00000AF010FA48BB504602F076F9FFF7D8FEEB
:103B1000002F38D0D8F800301B6E8BBB07F0EAFBC3
:103B20003846FEF72DFA04ACD8F8003044F80C0DF6
:103B30001F660068FEF772FE2046FEF771FB06F076
:103B400019FA06F051F902F0DDFD484602F028FAB4
:103B500002F0D8FD04B0BDE8F0872A462146304681
:103B600000F038FF0AF072F80028CCD02A4621462F
:103B7000304600F02FFF0AF069F80028EDD1C2E7C7
:103B800002F02CF9CAE702F029F9DCE701F0FFFFA7
:103B90004C0100202DE9F04385B006469046994639
:103BA0000F46FFF78DFE1C4A1C4B1268507C53F8E1
:103BB000204001E02468FCB1E3681A68042AF9D1C6
:103BC000DB6A0121204698470546D8B12469A368DD
:103BD0009847013018D00C9B0294009301954B46F6
:103BE00042463946304600F075FD044602F08AFD33
:103BF000204605B0BDE8F083FEF7EEFE044648B16E
:103C0000C368DDE70446F1E70C9B054C43F0010374
:103C10000C93E0E72046ECE74C010020AC48022082
:103C2000A89603082DE9F04184B00C9C9CB19846FD
:103C300017460E460546FFF743FE0B9B01930A9B72
:103C4000029400933A4643463146284600F042FD2E
:103C5000044602F057FD204604B0BDE8F08100BFE5
:103C60002DE9F0430C4D85B0994606460F46904627
:103C70000124FFF725FE094B029342464B46394685
:103C80008DE83000304600F025FD044602F03AFD94
:103C9000204605B0BDE8F083349F0308A8960308CA
:103CA00000B9704710B582B00446FFF709FE104B0B
:103CB0001B681B6E9C4217D02046FEF761F94369D2
:103CC000019063B90068FEF7A7FD01A8FEF7A8FA06
:103CD0002046FDF70DFF02F015FD02B010BD18469D
:103CE00002F0F6FC0198EDE702F078F8E4E700BF97
:103CF0004C0100202DE9F04F87B0064692461C4645
:103D00008946FFF7DDFD564B1A68564B577CDB574B
:103D1000012B384640F3978005F048FD05463846AC
:103D200005F08AFD0746002E00F08A8005A904A848
:103D3000FFF7DAFC049A059BB6F900C0B6F9020059
:103D4000B6F904E0B6F9061015441F44013D2CEA0B
:103D5000EC73013F20EAE072029303927545D4BFF1
:103D6000C3EB0503C3EB0E038F42D4BFC2EB0702C4
:103D7000C2EB01021D4617460135013704B97C42EA
:103D8000002D4FDD002F4DDD109B00932A4623466A
:103D900003990298FFF7FEFE8046002848D000F005
:103DA00017F98742064604D02D4B1B68986C0028F3
:103DB00051D1404600F0B8FBDFF8ACB03D460024DE
:103DC0000EE0AD1BACB95046C847DBF800303444B8
:103DD000FF2003B198474046FFF754FEA74212DD8B
:103DE000AE42EEDD2946404600F0E0F9AD1B002C66
:103DF000E9D0039B029940461A1900F0C5FB4046E2
:103E0000FFF7AEFDDFE74046FFF74AFF002000F076
:103E10008BFBB74206D0124B1B68986C10B1332154
:103E20000AF0FCFD02F06EFC002007B0BDE8F08F48
:103E30005046C84702F066FC012007B0BDE8F08F8D
:103E4000039602969AE705F05BFC0546384605F0B6
:103E500081FC074667E732210AF0E0FDA9E700BFD1
:103E60004C010020A84802207446022030B50446C8
:103E700083B098B1FFF724FD2046FEF781F8036870
:103E800002AD1B6945F8040D9B68984706F092F94E
:103E900004462846FEF7C4F902F034FC204603B07D
:103EA00030BD00BFA0B110B5044682B0FFF708FDD9
:103EB0002046FEF765F802AB026843F8040D184689
:103EC0001469FEF7ADF902F01DFC204602B010BDEA
:103ED000704700BFA0B110B5044682B0FFF7F0FCF8
:103EE0002046FEF74DF802AB00F1180443F8040D2C
:103EF0001846FEF795F902F005FC204602B010BD09
:103F0000704700BF10B5044682B0FFF7D9FC7CB102
:103F10002046FEF735F802ABB0F9044043F8040D33
:103F20001846FEF77DF902F0EDFB204602B010BD09
:103F3000044B1B681C6E002CEAD102F0E3FB204608
:103F400002B010BD4C01002010B5044682B0FFF74E
:103F5000B7FC7CB12046FEF713F802ABB0F908407D
:103F600043F8040D1846FEF75BF902F0CBFB204640
:103F700002B010BD044B1B681C6E002CEAD102F08D
:103F8000C1FB204602B010BD4C01002010B5044614
:103F900082B0FFF795FC7CB12046FDF7F1FF02AB44
:103FA000B0F9064043F8040D1846FEF739F902F05F
:103FB000A9FB204602B010BD044B1B681C6E002CF0
:103FC000EAD102F09FFB204602B010BD4C01002058
:103FD00010B5044682B0FFF773FC7CB12046FDF7B4
:103FE000CFFF02ABB0F90A4043F8040D1846FEF7C4
:103FF00017F902F087FB204602B010BD044B1B6886
:104000001C6E002CEAD102F07DFB204602B010BDF0
:104010004C0100202DE9F04FDFF888B189B0064649
:1040200005273046FDF7ACFF034607A8B3F900802B
:10403000B3F90440B3F90290B3F906500793C8EB03
:1040400004040134D3F824A0C9EB0505FEF7E8F811
:10405000002C05F1010555DD002D53DDBAF1000FEF
:1040600055D107F063FC86427FD04A4B01934FF055
:10407000010A494640462B462246CDF808B0CDF805
:1040800000A000F027FB80463046FDF779FF07903F
:10409000C0F82480B8F1000F60D0836ADFF808917F
:1040A00043F48033836207A8FEF7BAF8404600F075
:1040B0003BFA0590504602F0D9FB4046FFF70AFF55
:1040C000354A364B1978136805FB04F29200344CDC
:1040D000984730462568C9F8006007F017FF206050
:1040E00030460AF06BFB002210462560C9F800201C
:1040F00002F0BCFB059800F017FA3046FEF7AAF86C
:10410000406AF0B9013F8CD109B0BDE8F08F50464C
:10411000FDF736FF034608A8B3F9045040F8083D00
:10412000B3F90640FEF77CF8A8450FD04A46414651
:10413000504600F029FA3046FEF78CF8406A002815
:10414000E0D000F05DFA09B0BDE8F08FA145D4D011
:104150004A464146504600F017FAECE707A8FEF73A
:104160005FF830460AF02AFBCCE705F003FB8246F5
:1041700005F046FB544503DC85427FF776AFA24647
:104180008542A8BF05462A465146304609F0F2FA54
:1041900054466AE7349F0308440200207846022010
:1041A000C8470220A8960308584D022030B50D4696
:1041B00083B028B90C4B1B681C6E14B903B030BD1A
:1041C0000446FFF77DFB2046FDF7DAFEB0F90A3022
:1041D0000190AB42C8BF458101A8FEF721F802F06B
:1041E00091FA03B030BD00BF4C0100202DE9F0472B
:1041F00084B004460D4617469846DDF83090DDF849
:1042000034A0FFF75DFB2046FFF730FE0646284648
:10421000FFF72CFE202E04D004B0BDE8F04702F0DA
:1042200071BA2028F8D100268DE8000643463A46A8
:1042300029462046029612F0FBFD04B0BDE8F04787
:1042400002F060BA2DE9F04F8DB006460F4603929A
:104250001D46FFF735FB3046FFF708FE804638461F
:10426000FFF704FEB8F1200F04D002F04BFA0DB0B6
:10427000BDE8F08F2028F8D1179B002BF5D03046F1
:10428000FDF77EFE0A903846FDF77AFE0B90304629
:10429000FFF720FE83463846FFF71CFE0A9B099075
:1042A0001698B3F90A70B3F9086002F0C3FC8146AE
:1042B000169803F009FE179A99490B9B0793179CD0
:1042C00009FB02F381FB032EDA17C2EBAE1200FBEF
:1042D00004F381FB031E02FB07F1DB1702FB06F26E
:1042E00004920C46C3EBAE1EF9034FF47A720694A7
:1042F0000EFB06F84FEAC63CA1EB640302FB09F98A
:104300000EFB07F402FB00F2179899FBF0F992FB01
:10431000F0FA09FB07FE0AFB07F0049FA1EB6E0E03
:10432000ACEB640103EB6803A1EB6701039F03EBB4
:104330004533C8EB030201EB47319342069F0591D9
:104340000AFB06F1AEEB61010CEB60009C46A8BFD6
:1043500094469A4217440891B8BF1A460599049B9F
:10436000BC4508EB070EA8BFBC4603EB0108BA42E8
:10437000B8BF3A4641450B46A8BF43464145B8BF82
:104380004146F445A8BFF44609FB06F6964504EB02
:104390000807A0EB6600B8BF9646049A0690BB4299
:1043A0000E46A7EB0202A8BF3B46B846089CB742A0
:1043B000069FB8BFB0464FEA6A0093424FEA6901D0
:1043C0000CF5004CA7EB0006A8BF134667189045F4
:1043D0004FEA2C440694B8BF9046074431444FEA54
:1043E000EA004FEAE90200FB0511079E02FB157582
:1043F000069FB6F90A6027EAE777AEF5004E4FEA66
:104400002E440697039F0894A64202FB171200FB56
:10441000175503F5004317984FF07A7191FBF0F1AF
:104420000391D8BF06F1FF310698D8BF08911B143D
:10443000079923EAE373B1F90860079300FB1A2296
:10444000069900FB0955079809FB002304930AFB12
:1044500000530593099B01FB06F4A8F5004803EB04
:104460008404089B4FEA284846451A46D8BF06F1FF
:10447000FF388A4240DB83000993079F099B474529
:104480001C4425DC059E049D09E0DAB2002B3ED1D8
:10449000013747454D44564404F1040415DC0A989D
:1044A000039B019300F10A012B46009608305A46FF
:1044B00010F048F9030EFF2BE7D120600137474584
:1044C0004D44564404F10404E9DD0B9BB3F9086044
:1044D0000499069AC8EB060303F18043013BCAEB3B
:1044E0000101049104EB83040599089B01324944BE
:1044F0009A4206920591C0DD0AA8FDF791FE0BA82D
:10450000FDF78EFE02F0FEF80DB0BDE8F08F054B12
:1045100021681B6840F07F4098472060CEE700BFCD
:10452000D34D621054010020F0B5164F83B00446FD
:10453000FFF7C6F93B681E6EE4B1C6B906F0DAFEB5
:104540002046FDF71DFD02AD3B6845F8040D1C66D5
:104550000068FEF763F92846FDF762FE05F00AFDE4
:1045600005F042FC02F0CEF8304603B0F0BD01F099
:1045700035FCE3E701F032FC02F0C4F8304603B04A
:10458000F0BD00BF4C01002070B50D4682B016464C
:1045900028B91A4B1B681C6E14B902B070BD0446D2
:1045A000FFF78EF92046FDF7EBFC36B22DB2C68040
:1045B0008580009005F018FC009B586930B968466A
:1045C000FDF72EFE02F09EF802B070BDFDF7D8FC9C
:1045D000009A0190B2F90830B2F90A20C2808380B3
:1045E00013B10AB10580468001A8FDF719FE68469F
:1045F000FDF716FE02F086F8E6E700BF4C0100204A
:1046000000B9704770B5044684B0FFF759F92046E9
:10461000FDF7B6FC014601A8B1F90460B1F90650F6
:104620000A894B89019132442B44013A013BADF890
:104630000860ADF80C20ADF80E30ADF80A50FDF76B
:10464000EFFD02A809F06EFC40B12A463146204633
:1046500000F0A2F909F0FAFA0028F6D102F052F8B7
:1046600004B070BD00B9704770B5044684B00D4603
:104670001646FFF725F92046FDF782FC144B028908
:1046800001909D42438904BFB0F90450B0F906601F
:10469000ADF80850013A013B2A44334401A8ADF873
:1046A0000A60ADF80C20ADF80E30FDF7B9FD02A898
:1046B00009F038FC40B132462946204600F06CF93A
:1046C00009F0C4FA0028F6D102F01CF804B070BD5D
:1046D00001F0FFFF2DE9F04FDFF82C8187B0D8F80B
:1046E000004081468A4617461E461299637C1198FF
:1046F0000022FDF7D1FF00284DD003699B680546D5
:10470000984705F057FD00FB07F48346FDF7C8FC0A
:10471000109B073413F001034FEAD4043FD0002E5E
:104720002CDD002B42D004FB06F01830FDF788F991
:10473000034668B30022029218460393FDF720FC5B
:10474000024606A8029BA2F8049040F8042DA2F8A5
:1047500006A017815681D460C2F810B0536115606D
:10476000FDF75EFD129B2B61D8F80020039BAB6028
:10477000527CAA61184607B0BDE8F08F002C34D1F6
:10478000204676428642A8BF064693B3002ECADC76
:104790002846FEF741F8002007B0BDE8F08F00285A
:1047A000B8BF0330801000EB4000B8E700933A46F2
:1047B00033465146484601F0F7FE029004FB06F0EE
:1047C0001830FDF74BF903460028B5D1284603936E
:1047D000FEF722F8029B002BDDD01846FDF788F982
:1047E000039B184607B0BDE8F08F1838B0FBF4F013
:1047F000C7E700933A4633465146484601F0D4FE97
:10480000002E0290DADCC3E74C010020014B186057
:10481000704700BF744602202DE9F04F594C5A4BA7
:10482000D4F800C0DFF868919CF81150D9F8006006
:1048300053F825408BB02369002E00F0888017467E
:10484000DCF8602080460D46002A00F08580E26892
:104850001268072A78D04D4A9A1AB2FA82F252099F
:10486000002A71D04046FDF78BFB03460AA8B3F936
:1048700008B040F8083DB3F90AA0DB680593FDF7DE
:10488000CFFC404B18680BEB0504B0F90C30013C31
:10489000E41AB0F90830002CCCBFC4EB0B045C4622
:1048A0009D42BDBF591B641A1D460021002C50DDDE
:1048B0000AEB0703B0F90EE0B0F90A000791013BDB
:1048C000CEEB0303002BC8BFC3EB0A0AB842C5BF37
:1048D000C31BC3EB0A0A00230746BAF1000F069375
:1048E00037DD4046FFF7F6FA264B07991A68069B14
:1048F000D2F860C003FB0B1100EB8106BCF1000F86
:1049000030D06046FDF73CFBB0F90430D0F80C80A5
:104910000AAAED1AB0F9063042F8040DAD001835B8
:10492000FF1A08FB075707441046FDF779FC87B1CB
:10493000059B0193CDF80080D9F8005053462246DC
:1049400031463846A84704E03A462946404613F027
:10495000B1FA0BB0BDE8F08FE2681268B2FA82F2E9
:1049600052097DE7507CDFF82CE0CDF804A04FEA37
:104970008B020292009433463A462946DEF8004004
:10498000A047E6E74C010020AC480220A8960308A7
:10499000B8480220B44802202DE9F04182B00F4609
:1049A00090460646FDF7ECFA036802ACDB6844F873
:1049B000040D16215B6A0020984705462046FDF746
:1049C0002FFC1DB1424639463046A84702B0BDE82B
:1049D000F08100BF2DE9F04FA1B00D9110B921B0C9
:1049E000BDE8F08F92460746FDF7CAFA20AB44694E
:1049F00043F81C0D1846FDF713FC3846FFF736FA4E
:104A00000828054602DD002C00F0D98001234FF074
:104A1000000B38461F930A93CDF878B0FDF7B0FA33
:104A20000168DFF8688409690446D8F80000E36883
:104A30004D68B4F908100F9320AE23691491407C9F
:104A4000B4F90A10099346F8144DD4F8149016914D
:104A5000FEF7C6FDD8F800100890487CFEF79AFED5
:104A600004463046FDF7DCFB099A0A9B082A40F20F
:104A7000A080102A13468CBF04230223CDF828B04F
:104A80000E93A54200F0AC81D8F80030587CFEF7B8
:104A900079FE149B06469800FCF7D2FF129000287E
:104AA0009DD03846FFF716FA0746B9F1000F00F01F
:104AB000F5804846FDF764FA169B1C90002B40F3E6
:104AC0008B8100230C930F9BCDF840A0FB1815930E
:104AD0001DAB11934FF001081946836800221D9207
:104AE0005B690C9A9847159B0F9A9B1A0B93149B22
:104AF0008342044600F03181099B012B00F0F280D3
:104B0000002845D01AAB13931298FDF739FA099B88
:104B10001A90082B07461D9A40F2D4800E9B0B99E1
:104B2000A34602FB031A81463AF8020BA847B04796
:104B3000BBF1010B49F8040BF6D1089B1F2B04D8DD
:104B400038461A46214601F0A7FE0A9A059200222D
:104B50000392089A1D9802920D9A1A9B1099049339
:104B6000104401232246CDF80480CDF8008004F0E3
:104B70009FFA1398FDF754FB1C981D9B82681199AE
:104B800057690C9A1C441D94B84704460028BBD1B1
:104B9000159A0F990C9B0A441592109A01321092A3
:104BA000169A01339A420C9300F016811C981199C1
:104BB00093E7012A6ED11EAB0E920A9361E7384645
:104BC000FDF7DEF920ABB0F9088043F8100D02467E
:104BD0000168B0F90A00089018460E69D2F80CB0C6
:104BE00009920E93FDF71CFBA848A9490068736859
:104BF000407C0C9351F820100C6923680A93FEF74F
:104C0000EFFC0828099A40D910288CBF20231023D4
:104C100009938CBF4FF004094FF00209A64200F03F
:104C20002D82202D00F09E81102D7FF4D8AE08FB40
:104C300009F0FCF705FF109000283FF4D0AEFDF717
:104C40009FF91E903846FDF79BF91C90236900F1EF
:104C500018020B92002B00F022827369002B00F0E7
:104C60001E82B0F908008000FCF7EAFE0F900028D1
:104C700040F069821D900E98FDF7D2FA1EA8FDF74C
:104C8000CFFA1098FCF734FFA9E6082309934FF0F8
:104C90000109C3E70E93CDF828B0F2E60A9B05930D
:104CA0000F9B03930124099B04900293149A169B73
:104CB0000D9801945146009404F0FAF91298FCF70B
:104CC00017FF8CE60E9B0B99A14602FB031B824645
:104CD0001BF8010BA847B047B9F101094AF8040BCA
:104CE000F6D12AE700283FF453AF17960C9F0A9E8F
:104CF000DDF84090DDF834A0DDF844B01395DDF820
:104D000074E00B9D05960EF0070006900AEB0E006E
:104D1000BEF1000FB8BF0EF1070E05EBEE0E0F9DB2
:104D2000CDF810E02246012349460395CDF80880CE
:104D3000CDF80480CDF8008005F02EF91C981D9B5D
:104D400082681C44594653691D943A469847044664
:104D50000028D4D1139D179E1AE71298FDF710F979
:104D6000099B1A90082B8146149FDDF82CA004465D
:104D700029D93AF8020BA847B047013F44F8040B81
:104D8000F7D1089B1F2B04D848461A46149901F006
:104D900083FD0A9A059220AB1A460D9852F8183DE9
:104DA0000493144600220392089A0292CDF80480DC
:104DB000CDF800800123149A109904F079F9204667
:104DC000FDF72EFAE4E61AF8010BA847B047013FB9
:104DD00044F8040BF7D1D4E71CA8FDF721FA6DE7DE
:104DE0003846FFF777F80746B9F1000F00F0A980C1
:104DF0004846FDF7C5F8169B1C90002B40F39D809C
:104E000000261DABCDF82CA0DDF834A0B14601255D
:104E100098468368CDF874905B693246414698475E
:104E2000149B834204462DD0099B012B55D008B317
:104E30000B9B03EB060B0A9B1D9805930E9B0F9A89
:104E4000039203FB0073099A029204932246504492
:104E5000012359460195009504F02AF91C981D9BE1
:104E600082681C44414653691D9432469847044663
:104E70000028E0D10F9B01361F44169BB3425CDD36
:104E80001C98C6E70897B3461F4604E04C01002073
:104E9000AC480220A3461C9883680BF101045B69AF
:104EA0002246414698478742F4D0099902910B99CE
:104EB0000A9A089F0592C6EB0B030F9A0497314498
:104EC0000F9E0392013301950095149A504606FBFC
:104ED0000377264604F0ECF8CFE70028CAD00B9BF6
:104EE000089603EB060BDDF874E00A9805900EF0C7
:104EF000070006900AEB0E00BEF1000FB8BF0EF1DE
:104F0000070E07EBEE0E0F9ECDF810E022460123B0
:104F10005946039602950195009505F03DF81C98B9
:104F20001D9B82681C44414653691D94089A98470A
:104F300004460028D7D1089E9CE71CA8FDF770F90D
:104F40004DE50A9B05930F9B03930124099B049055
:104F50000293149A169B0D9801945146009404F004
:104F6000A7F83CE509FB08F0FCF76AFD0B90002868
:104F70003FF435ADFDF704F81E903846FDF700F814
:104F80001C90256900F1180745B34FEA880B0126EC
:104F900019E0B9F1040F19D0B9F1010F16D00022B0
:104FA0001E9909980290012305920392049101969B
:104FB0005146009642460D989A4404F079F8089BB1
:104FC000013B089350D0B9F1020FE2D138461E9947
:104FD00025694B464246A8475F44E0E70C95012609
:104FE000089C14E0B9F1040F00F08D81994500F0A0
:104FF00035810C9D05950395099D02951E9D019691
:105000000096049504F054F8013C2DD0DA460123B3
:10501000B9F1020F514642460D980AEB030BE1D15C
:1050200008944FEA88050124DDF87890BB4646468F
:105030005BF8040B0A9B9847013E29F8020BF7D155
:105040001E9B099A029204935146012305960396EA
:105050000194009442460D989A4404F029F8089B64
:10506000013B2F440893DFD10E98FDF7D9F81EA815
:10507000FDF7D6F80B98FCF73BFDB0E4012418329D
:1050800000260492CDF80CB00295089B0D98059669
:10509000424651460194009404F00AF89FE400252A
:1050A0000126089C16E0B9F1040F00F0FC80994538
:1050B00000F0A4801E9F0897099F0297089F0595FE
:1050C000039501960096049703F0F2FF013C3FF42C
:1050D000D2ADDA460123B9F1020F514642460D988E
:1050E0000AEB030BDFD14FEA48060C9D08940A9F98
:1050F0000A9601241E9EDDF82CB0C1463BF8020B37
:10510000A847B847B9F1010926F8020BF6D10B9E62
:105110001E9A099B0293B6460A9E049201235146A9
:10512000B644CDF81490CDF80C900194009442460A
:105130000D98CDF82CE09A4403F0BAFF089B013B90
:105140000893D7D197E5FCF71BFF1D9000283FF48B
:1051500092AD4FEA480337460A9301250C940B9E03
:1051600019E0B9F1040F30D0B9F1010F28D00022B5
:105170001E990998029001230592039204910195CA
:105180005146009542460D989A4403F091FF089BC2
:10519000013B08932BD0B9F1020FE2D1DDF878B0D2
:1051A0001D994B46424630467C69A0470A9C1D9893
:1051B00026440C9C59464B4642462469A047D6E7F4
:1051C000DDF878B01D990223ECE730461D997C6923
:1051D000DDF878B002234246A0470C9C1D98246954
:1051E0004B4659464246A0470A9B1E44BFE71DA8AE
:1051F000FDF716F80F98FCF77BFC3CE508FA03F680
:105200000C9D08940A9F0A964C461E9EDDF82CB011
:10521000C1463BF8020BA847B847B9F1010906F8A7
:10522000010BF6D10B9E1E9A099B0293B6460A9E6D
:10523000049201235146B644CDF81490CDF80C9059
:105240000194009442460D98CDF82CE09A4403F066
:105250002FFF089B013B0893D7D10CE508944FEA38
:1052600088054C46DDF87890BB4646465BF8040B53
:105270000A9B9847013E09F8010BF7D11E9B099A3A
:1052800002920493514601230596039601940094DB
:1052900042460D989A4403F00BFF089B013B2F44B4
:1052A0000893DFD1E0E64FEA48060C9D08940A9F78
:1052B0000A9601241E9EDDF82CB0C1463BF8020B75
:1052C000A847B847B9F1010946F8040BF6D10B9E7F
:1052D0001E9A099B0293B6460A9E049201235146E8
:1052E000B644CDF81490CDF80C9001940094424649
:1052F0000D98CDF82CE09A4403F0DAFE089B013BB0
:105300000893D7D1B7E408944FEA88050124DDF863
:105310007890BB4646465BF8040B0A9B9847013ED3
:1053200049F8040BF7D11E9B099A02920493514647
:105330000123059603960194009442460D989A44E1
:1053400003F0B6FE089B013B2F440893DFD18BE6A8
:10535000184B194A196A70B500290CBF0646002679
:1053600082B09157012923DD03EB86021469651C85
:105370001561ECB9956853F8263026462C4600E0B6
:105380001C4601348C420ABF002494609660A342FC
:10539000F6D0FDF721FB019050B1C36821215B6A73
:1053A00001A89847034618B1224629460198984714
:1053B00002B070BDA8440220A8480220094B1A6A16
:1053C000002A18BF002003EB800210B49469002C5F
:1053D00004DB43F820104FF0FF3393615DF8044B7A
:1053E000704700BFA8440220164B174A196A30B50F
:1053F00000290CBF0446002483B01257012A05DDA2
:1054000003EB84042369013B23610BB103B030BD7E
:1054100005460120A840FDF72DF92846A568A5619D
:10542000FDF7DAFA01900028F0D0C36822215B6A08
:1054300001A8984703460028E8D0294601989847D4
:1054400003B030BDA8440220A848022020B321B3F5
:1054500022B3B2F900C0B1F90630F0B5B1F900508D
:10546000B2F902E0B1F90240B2F90470B2F9066093
:10547000B1F904206545A8BF6546A6457146A8BF99
:105480002146BA42B8BF3A46B342B8BF3346058058
:1054900041808280C380F0BD704711460B684A6826
:1054A00042600360704700BF78B170B406884488DA
:1054B0008588C38889B292B20E4414442944068078
:1054C000448070BC1A448180C280704770B4104D13
:1054D0002B686A68934204460FD093E807000D4E8C
:1054E00084E80700B34214BF0C333C3B2B60207AA6
:1054F000003018BF012070BC7047074A934206BFB6
:105500003C3393E8070013E9070084E80700EEE75F
:105510002C020020F4450220B8450220034B09CBA1
:10552000C01AB0FA80F04009704700BF2C0200207A
:10553000F0B5374E336D85B00446002B55D094E856
:105540000700344C344DF36C256001AD85E807004D
:105550000BB128469847314FD7F800E07B689E454D
:1055600038D0B3422A4C9DF80C2035D013F8041CD7
:10557000914212D03C3495E80700A34283E807002B
:105580001BD00C339E457B601BD0B36C0BB12846FF
:10559000984700F075FD05B0F0BDA3F10C018E45F4
:1055A000E8D0A1422ED03C340C39097A9142E2D1A4
:1055B000B34214BF0C3B2346DDE7154B7B609E4591
:1055C000E3D1174B9E4514BF0EF10C03AEF13C0323
:1055D0003B60DAE7124CCEE796F8441091420BD0CC
:1055E00095E8070086E80700CBE730460D4B40F80A
:1055F000503F02F0AFFBA2E706F13C04A645EFD016
:105600002146D1E701F13C0403F13001CDE700BFB1
:10561000B8450220644D0220C9BF00082C020020BA
:10562000F44502201564010810B5FEF749F90D4A4A
:10563000136851688B420FD00B4CA34293E80300D0
:105640004FF0010414BF0833503B136007F00CFD0A
:1056500001F058F8204610BD002401F053F8204610
:1056600010BD00BF24020020AC450220F0B5164C4E
:10567000059E2568069CB5F908E0B5F90C707045E3
:10568000B8BF7046BA42A8BF3A4690421ADCB5F994
:105690000A70B5F90E50B942B8BF3946AB42A8BF3F
:1056A0002B468B4203DAF0BD25682DB12C46E56808
:1056B0002D6835F00405F7D106940596BDE8F04055
:1056C00004F04ABAF0BD00BF4C010020B0F902203E
:1056D000B1F906309A4214DCB1F90220B0F9063073
:1056E0009A420EDCB0F90020B1F904309A4208DC8D
:1056F000B0F90400B1F900308342CCBF0020012092
:1057000070470020704700BF08B5034B0146742264
:105710001868FAF7FAFD08BD4C01002000B970477F
:105720002DE9F04FABB004460D4616461D921C9174
:10573000FEF7C6F82046FCF723FCB0F904300468F5
:1057400027909D42129400F083810020FEF7ECFE2A
:105750009F4B129A1B689269597C20900846279D9E
:105760002191824218BF5A74B5F904300793184644
:10577000B5F90810B5F906301992B5F90A20139356
:105780001C46091A121B0E460B911A92214614460A
:10579000324601322B8A1B92224601329B071E920F
:1057A00040F137811C9B6A6903921B1A1D9A14935E
:1057B000002BA2EB010440F3BD810993DDF86C904E
:1057C00000234FF0010A1193002C40F3BE811E9B71
:1057D00016930123179415934FF0000B129E7D4BE7
:1057E000B0691B56012B40F39F810023ADF8A23016
:1057F000ADF8A03003F0DAFF431EB069ADF8A43075
:1058000004F01AF80138ADF8A6002798524600F1C6
:1058100014010AF05FFA2290002800F0F98027981E
:10582000524600F114010AF055FA2490002800F0C5
:10583000EA80279BD868002840F09781169A5A453D
:1058400000F0DD801B9B119923909A000BFB031342
:1058500005EB83030E93C4EB0B030C93139B159979
:10586000234418934FEA8A0301FB02F204935B4638
:105870001F92D346C8469A46179B534500F30981A9
:105880001A9B5345B4BF002301231093139B119C13
:1058900053440F93189BA0455344089300F0A080F5
:1058A0001498079B0E9D0344C0EB04090A935FE024
:1058B0000B9BA3426CDB109B002B69D0BDF9A02091
:1058C000BA4240F3778200230593B9F1000FC0F28A
:1058D000CC800C9B002BC0F2C8801A464946039826
:1058E000FDF72AFE030E40F0C080BDF9A030069AF5
:1058F0009A420FDBBDF9A2200F998A420ADCBDF95A
:10590000A42006998A4205DBBDF9A6200F998A4298
:1059100080F2A4809F4223DBBDF9A2300898834225
:105920001EDCBDF9A430BB421ADBBDF9A6308342B0
:1059300016DB3046284B239E1B6846F07F41FF2232
:105940009847199A254B53F822301B691B689847D2
:10595000229B00930246129B0899384611F040FEA4
:10596000059B2B625C44049BA0451D44D94437D061
:10597000524621460398FDF7DFFD030E0646F1D09F
:10598000079BE31806930A9B1F19099BA3428FDD0F
:10599000BDF9A030BB421A466ADCBDF9A2300899B5
:1059A0008B424FF0000371DC0D93BDF9A430BB4274
:1059B00004DBBDF9A630089A93426DDA0023059303
:1059C0000D9B002B81D1BDF9A02013468FE700BFAE
:1059D0004C010020A848022054010020AC480220BD
:1059E0000E9B1F99159A0B440E930C9B1946169B00
:1059F0009244114453450C917FF43EAF279B1868A5
:105A0000249911F0F7F8279B2299186811F0F2F801
:105A1000279D1C9B1B9A1D99AB801E98E9801344FF
:105A2000013B4A1E02442B81199B6A81219A194627
:105A3000914202D0A64B1B685A742098FEF774FD61
:105A400027A8FCF7EDFB00F05DFE2BB0BDE8F08F62
:105A5000B0F906309E427FF478AEF1E7249B2A6AC3
:105A600006980093129B11F0BBFDBDF9A03051E7E1
:105A7000069A934207DCBDF9A2200F99914202DBFE
:105A8000002205923BE70023059369E7059313463F
:105A90002DE700231093F9E6279BB3F90420BA42BF
:105AA0002DDCB3F90810B94229DBB3F906E00898F8
:105AB000864524DCB3F90A10814220DB586925931E
:105AC000E8B1BB1A19460593089BCEEB03031A46AF
:105AD0002393FDF731FD030E259B10D0B3F904107D
